:101F6A00EF1FAC0670011E4C600A7D027CEFDCFE9E
:041F7A00DDFC80EC1E
:011F7E002240
:0B1FA200EF1FAC0670011E4C70F62211
:0F1E2300FBE0FCA3E0FDA3E0FEA3E0FF120593AC
:101E320090003E120A25E4FFFEFDFC90003EE0F811
:101E4200A3E0F9A3E0FAA3E0FB12082E90003EE023
:101E5200FCA3E0FDA3E0FEA3E0FF50030208A722DB
:091A4F00F0A3EFF0E4FDFC7F7848
:101A580090003FECF0A3EDF0A3EAF0A3EBF09000C8
:041A68003EEFF0F964
:101A6C00900043E0FEA3E0FF7CFF7DFB1209A4EF96
:101A7C002432FFE43E900043F0A3EFF0E964787069
:101A8C004D90003FE07004A3E064017004C2A1809B
:101A9C0002D2A1E4900045F0A3F0900041E0FEA337
:101AAC00E0FFC3900046E09F900045E09E501FC2AF
:101ABC00A0900043E0FEA3E0FF121FA2D2A0900072
:101ACC0046E004F070D4900045E004F080CC900027
:101ADC003EE06479704BA3E07004A3E064017004F1
:101AEC00D2A38002C2A3E4900045F0A3F090004181
:101AFC00E0FEA3E0FFC3900046E09F900045E09E0F
:101B0C00501FC2A2900043E0FEA3E0FF121FA2D21E
:101B1C00A2900046E004F070D4900045E004F08000
:011B2C00CCEC
:011B2D002295
:060EBE00900015120A2548
:100EC400900033120A3100000000E4900037F090E3
:100ED4000015E0FCA3E0FDA3E0FEA3E0FF90002BDF
:100EE400120A25900019E0FCA3E0FDA3E0FEA3E0B4
:100EF400FF90002F120A25900021E0F8A3E0F9A347
:100F0400E0FAA3E0900019121E23C004C005C00635
:100F1400C00790001DE0F8A3E0F9A3E0FAA3E09075
:100F24000015121E23D003D002D001D00012059761
:100F3400C004C005C006C007900025E0FCA3E0FD86
:100F4400E41208BD7B177AB779517839120688A85C
:100F540004A905AA06AB07D007D006D005D0041211
:100F640007911208F6900029EEF0A3EFF090001517
:100F7400E0F8A3E0F9A3E0FAA3E0FB90001DE0FC95
:100F8400A3E0FDA3E0FEA3E0FF120593E4FBFAF95E
:100F9400F812082E500A900038E4F0A304F08007F9
:100FA400E4900038F0A3F0900019E0F8A3E0F9A36E
:100FB400E0FAA3E0FB900021E0FCA3E0FDA3E0FE47
:100FC400A3E0FF120593E4FBFAF9F812082E500A85
:100FD40090003AE4F0A304F08007E490003AF0A310
:100FE400F0900029E07002A3E0700302126AE4FFAB
:100FF400FEFDFC900033E0F8A3E0F9A3E0FAA3E0DF
:10100400FB12082E50030210F6900038E0FCA3E017
:10101400FD900025E0FAA3E0FBA3E0FFA3E090002D
:1010240043CFF0A3EFF07F78121A58900038E070A5
:1010340002A3E090002B703FE0FCA3E0FDA3E0FEE0
:10104400A3E0FFC004C005C006C007900025E0FC73
:10105400A3E0FDE41208BD7B177AB7795178391201
:101064000688A804A905AA06AB07D007D006D005B0
:10107400D0041205938035E0F8A3E0F9A3E0FAA3C5
:10108400E0FBC000C001C002C003900025E0FCA347
:10109400E0FDE41208BD7B177AB77951783912065E
:1010A40088D003D002D001D00012059790002B12F3
:1010B4000A25900033E0FCA3E0FDA3E0FEA3E0FFDB
:1010C400C004C005C006C007900019E0F8A3E0F909
:1010D400A3E0FAA3E0FB900021121E24A804A905B2
:1010E400AA06AB07D007D006D005D0041205930298
:1010F40011EFE4FFFEFDFC900033E0F8A3E0F9A358
:10110400E0FAA3E0FB12082E40030211F590003A26
:10111400E0FCA3E0FD900025E0FAA3E0FBA3E0FFE0
:10112400A3E0900043CFF0A3EFF07F79121A589018
:10113400003AE07002A3E090002F703FE0FCA3E0CF
:10114400FDA3E0FEA3E0FFC004C005C006C00790F5
:101154000025E0FCA3E0FDE41208BD7B177AB77913
:10116400517839120688A804A905AA06AB07D00746
:10117400D006D005D0041205938035E0F8A3E0F939
:10118400A3E0FAA3E0FBC000C001C002C0039000CA
:1011940025E0FCA3E0FDE41208BD7B177AB7795182
:1011A4007839120688D003D002D001D000120597F6
:1011B40090002F120A25900033E0F8A3E0F9A3E091
:1011C400FAA3E0FBC000C001C002C003900015E018
:1011D400F8A3E0F9A3E0FAA3E0FB90001D121E249B
:1011E400D003D002D001D000120597900033120A28
:1011F40025900037E004F0E075F06484E5F0704C6D
:10120400FFFE7DC87C4290002BE0F8A3E0F9A3E048
:10121400FAA3E0FB1206881208F690003CEEF0A355
:10122400EFF0E4FFFE7DC87C4290002FE0F8A3E0DD
:10123400F9A3E0FAA3E0FB1206881208F6AD07ACA6
:101244000690003CE0FEA3E0FF121D3F90002AE060
:1012540024FFF0900029E034FFF0900051E0640195
:061264006003020FE52209
:01126A002261
:0600160090000F120A2504
:10001C00E490003BF0900017E0F8A3E0F9A3E0FABD
:10002C00A3E0FB90000FE0FCA3E0FDA3E0FEA3E047
:10003C00FF12059390002B120A2590001BE0F8A3E9
:10004C00E0F9A3E0FAA3E0FB900013E0FCA3E0FDD1
:10005C00A3E0FEA3E0FF12059390002F120A259057
:10006C000013E0F8A3E0F9A3E0FAA3E0FB90001B77
:10007C00E0FCA3E0FDA3E0FEA3E0FF120593C004A7
:10008C00C005C006C007900013E0F8A3E0F9A3E098
:10009C00FAA3E0FB90001BE0FCA3E0FDA3E0FEA3B1
:1000AC00E0FF120593D003D002D001D000120688D5
:1000BC00C004C005C006C00790000FE0F8A3E0F92B
:1000CC00A3E0FAA3E0FB900017E0FCA3E0FDA3E0A3
:1000DC00FEA3E0FF120593C004C005C006C0079044
:1000EC00000FE0F8A3E0F9A3E0FAA3E0FB900017FF
:1000FC00E0FCA3E0FDA3E0FEA3E0FF120593D00318
:10010C00D002D001D000120688D003D002D001D08A
:10011C0000120597121B32900037120A2590001F0F
:10012C00E0FCA3E0FDA3E0FEA3E0FF900037E0F8C5
:10013C00A3E0F9A3E0FAA3E0FB1206887BB87A06E9
:10014C0079B6783C120688900033120A25E4FFFE3B
:10015C00FDFC900033E0F8A3E0F9A3E0FAA3E0FB88
:10016C0012082E6002500302058F90002FE0FCA3B2
:10017C00E0FDA3E0FEA3E0FFA804A905AA06FB127C
:10018C000688C004C005C006C00790002BE0FCA385
:10019C00E0FDA3E0FEA3E0FFA804A905AA06FB125C
:1001AC000688D003D002D001D000120597C004C03D
:1001BC0005C006C007900037E0FCA3E0FDA3E0FEFD
:1001CC00A3E0FFA804A905AA06FB120688A804A9A7
:1001DC0005AA06AB07D007D006D005D004120593AC
:1001EC00900027120A25E4FFFEFDFC90002BE0F89E
:1001FC00A3E0F9A3E0FAA3E0FB12082E4046E4FFCB
:10020C00FEFDFC90002FE0F8A3E0F9A3E0FAA3E0D8
:10021C00FB12082E602E402CE4FFFEFDFC90002704
:10022C00E0F8A3E0F9A3E0FAA3E0FB12082E90009B
:10023C0023E0FAA3E0FBA3E0FFA3E0900043CF4050
:10024C005F020490E4FFFEFDFC90002BE0F8A3E0BD
:10025C00F9A3E0FAA3E0FB12082E40030202F6E435
:10026C00FFFEFDFC90002FE0F8A3E0F9A3E0FAA359
:10027C00E0FB12082E4073E4FFFEFDFC900027E02B
:10028C00F8A3E0F9A3E0FAA3E0FB12082E900023F8
:10029C00E0FAA3E0FBA3E0FFA3E0900043CF4048CB
:1002AC00F0A3EFF07D017C007F78121A5890002BA0
:1002BC00E0F8A3E0F9A3E0FAA3E0FBC000C001C0A2
:1002CC0002C003900023E0FCA3E0FDE41208BD7B18
:1002DC00177AB779517839120688D003D002D00139
:1002EC00D00012059702048B8061E4FFFEFDFC90A8
:1002FC00002BE0F8A3E0F9A3E0FAA3E0FB12082E30
:10030C00600540030203E5E4FFFEFDFC90002FE0D6
:10031C00F8A3E0F9A3E0FAA3E0FB12082E400302D5
:10032C0003E5E4FFFEFDFC900027E0F8A3E0F9A351
:10033C00E0FAA3E0FB12082E900023E0FAA3E0FB06
:10034C00A3E0FFA3E0900043CF4048F0A3EFF07D83
:10035C00017C007F79121A5890002FE0F8A3E0F985
:10036C00A3E0FAA3E0FBC000C001C002C0039000F0
:10037C0023E0FCA3E0FDE41208BD7B177AB77951AA
:10038C007839120688D003D002D001D0001205971C
:10039C000204DC121A4F90002BE0FCA3E0FDA3E05A
:1003AC00FEA3E0FFC004C005C006C007900023E018
:1003BC00FCA3E0FDE41208BD7B177AB779517839BC
:1003CC00120688A804A905AA06AB07D007D006D048
:1003DC0005D00412059302048BE4FFFEFDFC900093
:1003EC002BE0F8A3E0F9A3E0FAA3E0FB12082E60DF
:1003FC000250030204E2E4FFFEFDFC90002FE0F843
:10040C00A3E0F9A3E0FAA3E0FB12082E6005400379
:10041C000204E2E4FFFEFDFC900027E0F8A3E0F903
:10042C00A3E0FAA3E0FB12082E900023E0FAA3E06D
:10043C00FBA3E0FFA3E0900043CF4048121A4F907B
:10044C00002BE0FCA3E0FDA3E0FEA3E0FFC004C092
:10045C0005C006C007900023E0FCA3E0FDE41208F1
:10046C00BD7B177AB779517839120688A804A9058B
:10047C00AA06AB07D007D006D005D004120593907E
:10048C00002B804FF0A3EFF0E4FDFC7F79121A589B
:10049C0090002FE0FCA3E0FDA3E0FEA3E0FFC0046E
:1004AC00C005C006C007900023E0FCA3E0FDE412E9
:1004BC0008BD7B177AB779517839120688A804A938
:1004CC0005AA06AB07D007D006D005D004120593B9
:1004DC0090002F120A2590003BE004F0E075F064C8
:1004EC0084E5F0704CFFFE7DC87C4290002BE0F858
:1004FC00A3E0F9A3E0FAA3E0FB1206881208F69039
:10050C00003CEEF0A3EFF0E4FFFE7DC87C429000CF
:10051C002FE0F8A3E0F9A3E0FAA3E0FB120688129F
:10052C0008F6AD07AC0690003CE0FEA3E0FF121D00
:10053C003F900033E0FCA3E0FDA3E0FEA3E0FFC08E
:10054C0004C005C006C007900023E0FCA3E0FDE456
:10055C001208BD7B177AB779517839120688A8042E
:10056C00A905AA06AB07D007D006D005D004120502
:10057C0093900033120A25900051E064016003024D
:03058C00015922F0
:01058F002249
:061FC500583A00593A00F1
:061F9300C2A58F80D2A759
:081F99007F027EEFDEFEDFFC9B
:011FA100221D
:0A1FAD00C2A6121F93C2A7021F99DB
:101EF600E0FCA3E0FDCFCDCFCECCCE1209B67C0060
:091F06007D0A1209B6ED2430FF3A
:0A1F0F00D2A6121F93C2A7021F9969
:101F3A00AE07EEB40104ED148007EEB40209ED24F5
:081F4A003F4480FF121FAD228D
:101F7F007F38121FAD7F0C121FAD7F06121FAD7F72
:041F8F0001021FAD7F
:0B1EC900900042EBF0A3EAF0A3E9F068
:101ED400121F3AE4FD900042E0FBA3E0FAA3E0F90C
:101EE4008D82758300120977FF6006121F0F0D8023
:011EF400E409
:011EF50022CA
:0C1C3C00EA24FFFDE434FFFC7F0A7E0078
:0E1C4800900049EEF0A3EFF0A3ECF0A3EDF056
:101C5600A3E4F0A304F0E4FBEBFFD390004CE09F79
:101C66007480F890004BE0648098401E90004DE030
:101C7600FEA3E0FF900049E0FCA3E0FD1209A4905A
:101C8600004DEEF0A3EFF00B80CE90004DE0FEA3EA
:021C9600E0FF6D
:011C98002229
:081F1900900011EAF0A3EBF0C7
:101F2100121F3AA3E0FAEAD39400400C121C3C9031
:081F31000011121EF61A80EEE9
:011F39002285
:101DDF00121F3AC3EA64809480400F7F2B121F0FAB
:101DEF00900047EAF0A3EBF080127F2D121F0FC374
:101DFF00E49BFEE49A900047F0A3CEF0900046E0FB
:101E0F00FAEAD39400400C121C3C900047121EF6C5
:031E1F001A80EE38
:011E2200229D
:101D3F0090003EEEF0A3EFF0A3ECF0A3EDF07BFFED
:101D4F007A1F79C57D0B7F01121EC97BFF7A1F7920
:101D5F00C87D0B7F02121EC990003EE0FAA3E0FB84
:101D6F009000467404F07D0D7F01121DDF9000403E
:101D7F00E0FAA3E0FB9000467404F07D0D7F0202B1
:021D8F001DDF56
:101F5200676F202D5800676F202B5800676F202D68
:081F62005900676F202B5900A4
:10172800E490000FF07590FFC2932097167F14FE87
:10173800121F6A3097FD7F147E00121F6A90000FF7
:101748007401F02096177F147E00121F6A3096FDF0
:101758007F147E00121F6A90000F7404F020951702
:101768007F147E00121F6A3095FD7F147E00121FC1
:101778006A90000F7407F02094167F147E00121FE1
:101788006A3094FD7F147E00121F6AE490000FF007
:101798007590FFC2922097177F147E00121F6A303F
:1017A80097FD7F147E00121F6A90000F7402F020CC
:1017B80096177F147E00121F6A3096FD7F147E00F4
:1017C800121F6A90000F7405F02095177F147E0091
:1017D800121F6A3095FD7F147E00121F6A90000F59
:1017E8007408F02094177F147E00121F6A3094FD4D
:1017F8007F147E00121F6A90000F740BF07590FF23
:10180800C2912097177F147E00121F6A3097FD7FC0
:10181800147E00121F6A90000F7403F02096177F41
:10182800147E00121F6A3096FD7F147E00121F6A14
:1018380090000F7406F02095177F147E00121F6A1F
:101848003095FD7F147E00121F6A90000F7409F016
:101858002094177F147E00121F6A3094FD7F147E37
:0F18680000121F6A90000F740CF090000FE0FF49
:01187700224E
:1019640090000FEFF07590FFC2922097327F147EA3
:1019740000121F6A2097287BFF7A1F79527D017F0E
:1019840002121EC990000FE0FF900043E4F0A3EFA1
:10199400F07BF47A01E4FDFC7F78121A5880D5209C
:1019A40095337F147E00121F6A2095297BFF7A1FCE
:1019B40079587D017F02121EC990000FE0FF90004C
:1019C40043E4F0A3EFF07BF47A017D017C007F789F
:1019D400121A5880D47590FFC2932096327F0A7EE3
:1019E40000121F6A2096287BFF7A1F795E7D017F93
:1019F40002121EC990000FE0FF900043E4F0A3EF31
:101A0400F07BF47A01E4FDFC7F79121A5880D575D5
:101A140090FFC2912096337F0A7E00121F6A20969F
:101A2400297BFF7A1F79647D017F02121EC9900011
:101A34000FE0FF900043E4F0A3EFF07BF47A017D24
:0B1A4400017C007F79121A5880D42228
:071FB700D28AD2AAD2AF22A8
:071FBE00D288D2A8D2AF22A5
:101E970020B1137F0A7E00121F6A20B10690000F3F
:101EA7007401F030B1FD20B0137F0A7E00121F6A63
:101EB70020B00690000F7402F030B0FD90000FE0E4
:011EC700FF1B
:011EC80022F7
:101C990090000F120A25900019120A310000000065
:101CA90090000FE0FCA3E0FDA3E0FEA3E0FF90009D
:101CB9001D120A25900021120A310000000090002F
:101CC90013E0FF900025E4F0A3EFF0900014E0FF8B
:101CD900900027E4F0A3EFF07F007E007D007C00F8
:031CE900020EBE2A
:101CEC0090000F120A25900019120A310000000012
:101CFC0090001D120A310000000090000FE0FCA3C0
:101D0C00E0FDA3E0FEA3E0FF900021120A25900065
:101D1C0013E0FF900025E4F0A3EFF0900014E0FF37
:101D2C00900027E4F0A3EFF07F007E007D007C00A4
:031D3C00020EBED6
:1015960090000F120A25900019120A31000000006F
:1015A60090000FE0FCA3E0FDA3E0FEA3E0FF12081D
:1015B600A790001D120A25900021120A3100000092
:1015C60000900013E0FF900025E4F0A3EFF09000F8
:1015D60014E0FF900027E4F0A3EFF07F007E007D8B
:1015E600007C00120EBE90000FE0FCA3E0FDA3E01D
:1015F600FEA3E0FF1208A7C004C005C006C00790FE
:101606000019120A310000000090000FE0FCA3E070
:10161600FDA3E0FEA3E0FF1208A790001D120A2515
:1016260090000FE0FCA3E0FDA3E0FEA3E0FF12089C
:10163600A7900021120A25900013E0FF900025E4F0
:10164600F0A3EFF0900014E0FF900027E4F0A3EF82
:10165600F0D007D006D005D004120EBE90000FE0E1
:10166600FCA3E0FDA3E0FEA3E0FF1208A7C004C0B0
:1016760005C006C00790000FE0FCA3E0FDA3E0FE56
:10168600A3E0FF1208A7900019120A2590001D1268
:101696000A310000000090000FE0FCA3E0FDA3E08B
:1016A600FEA3E0FF1208A7900021120A259000135E
:1016B600E0FF900025E4F0A3EFF0900014E0FF9027
:1016C6000027E4F0A3EFF0D007D006D005D004122F
:1016D6000EBE90000FE0FCA3E0FDA3E0FEA3E0FF3A
:1016E6001208A7900019120A2590001D120A31004F
:1016F600000000900021120A310000000090001343
:10170600E0FF900025E4F0A3EFF0900014E0FF90D6
:101716000027E4F0A3EFF07F007E007D007C00024E
:021726000EBEF5
:10126B00900013120A313F000000900017120A3150
:10127B003F5D70A490001B120A310000000090002B
:10128B001F120A3142F00000900023E4F0A3740A0D
:10129B00F0A3E4F0A37406F07F007E007D007C00D9
:1012AB00120016900013120A313F00000090001735
:1012BB00120A310000000090001B120A31BF00001F
:1012CB000090001F120A3142B40000900023E4F09A
:1012DB00A3740AF0A3E4F0A37406F07FA47E707DE0
:1012EB00DD7C3F120016900013120A31C00EB8526B
:1012FB00900017120A313F00000090001B120A31B8
:10130B00BFAEB85290001F120A314270000090001D
:10131B0023E4F0A3740AF0A3E4F0A37406F07F00B7
:10132B007E007D807C3F120016900013120A31C0A4
:10133B000EB852900017120A31BF00000090001B2C
:10134B00120A31BFAEB85290001F120A3142700020
:10135B0000900023E4F0A3740AF0A3E4F0A3740656
:10136B00F07F007E007D007C0012001690001312AF
:10137B000A31C00EB852900017120A31000000005B
:10138B0090001B120A31BF00000090001F120A319F
:10139B0042B40000900023E4F0A3740AF0A3E4F03D
:1013AB00A37406F07F007E007D807CBF1200169038
:1013BB000013120A313F000000900017120A31BFD0
:1013CB005D70A490001B120A310000000090001FFA
:1013DB00120A3142F00000900023E4F0A3740AF0EB
:1013EB00A3E4F0A37406F07FA47E707DDD7CBF12B6
:1013FB000016900019120A313F00000090001D12D8
:10140B000A31BF5DB22D900021120A31400000005D
:10141B00900025E4F0A37432F0A3E4F0A37407F07A
:10142B007F007E007D007C00120EBE900019120A18
:10143B00314000000090001D120A31BFDD70A490F6
:10144B000021120A3140000000900025E4F0A37443
:10145B0032F0A3E4F0A37407F07F2D7EB27D5D7CA8
:10146B00BF120EBE900019120A314000000090000E
:10147B001D120A3100000000900021120A313F00BA
:10148B000000900025E4F0A37432F0A3E4F0A37401
:10149B0007F07FA47E707DDD7CBF120EBE9000191D
:1014AB00120A313F00000090001D120A313EDDB2DE
:1014BB002D900021120A313FA00000900025E4F08E
:1014CB00A37432F0A3E4F0A37407F07F007E007DD9
:1014DB00007C00120EBE900019120A313FA00000D2
:1014EB0090001D120A313F5D70A4900021120A3149
:1014FB003FA00000900025E4F0A37432F0A3E4F0C9
:10150B00A37407F07F2D7EB27DDD7C3E120EBE9064
:10151B000019120A313FA0000090001D120A310081
:10152B00000000900021120A313F000000900025BE
:10153B00E4F0A37432F0A3E4F0A37407F07FA47E6D
:10154B00707D5D7C3F120EBE900013120A313F007E
:10155B000000900017120A313FDD70A490001B129F
:10156B000A313F00000090001F120A3142B4000004
:10157B00900023E4F0A3740AF0A3E4F0A37406F044
:0B158B007F007E007D007C0002001647
:101878004C696E652B7820004C696E652B792000C9
:1018880053515541524520004150504C452020208D
:101898002020002020202057656C636F6D65212073
:1018A8002020200020202020202020202020202050
:1018B80020202020005345545F4D4F44453A2020B6
:1018C80020202020200044726177696E6720202044
:1018D8002020204F4B3F004D616E75616C20202009
:1018E800202020204F4B3F005345545F5041524128
:1018F8003A202020202020200053706565643A207B
:101908002020202020202020200050726573697339
:10191800696F6E3A20202020202000447261775F92
:101928006D6F6465202020202020200020202020AA
:1019380046696E736865642120202020004D616E21
:1019480075616C5F6D6F6465005E0056003C003E1B
:0C19580000202020202020202020200043
:101E6200EF24FE601214601714601C240370257B9B
:101E7200FF7A18797880167BFF7A187980800E7B3A
:101E8200FF7A18798880067BFF7A1879907D017F26
:051E920002121EC9222E
:100A6200E4900005F0A3F0A3F0A3F0A3F090000B34
:100A72007414F0A37405F090000E7401F0121F7F3D
:100A8200121FB7121FBE7BFF7A18799B7D017F016F
:100A9200121EC990004FE0701A7BFF7A18799B7D75
:100AA200017F01121EC97BFF7A1879AC7D017F029A
:100AB200121EC990004FE064017063A3F07BFF7ABD
:100AC2001879BD7D017F01121EC9121E9790000D7B
:100AD200EFF0BF01157BFF7A1879CE7D017F0212FC
:100AE2001EC99000037401F0801A90000DE0B40258
:100AF200137BFF7A1879DF7D017F02121EC99000F5
:100B0200037402F012172890000AEFF06405708354
:100B120090005004F090004F7403F0020A95900088
:100B22004FE064027064A3F07BFF7A1879F07D01D4
:100B32007F01121EC9121E9790000DEFF0BF011522
:100B42007BFF7A1979017D017F02121EC990000391
:100B52007401F0801A90000DE0B402137BFF7A1941
:100B620079127D017F02121EC99000037402F012F5
:100B7200172890000AEFF064056003020A959000BE
:100B82004F7403F0A314F0020A95900050E0640140
:100B92006003020DB4900003E064016003020D10D3
:100BA200121728900004EFF0900008E0700D7BFF10
:100BB2007A1979237D017F01121EC9900004E0FF9A
:100BC200B40208900006E004F08067EFB4080590D4
:100BD2000006805BEFB405089000077401F08052B4
:100BE200EFB40410900009E014F0E0C39400501A2E
:100BF200E4F08016900004E0B40625900009E004B9
:100C0200F0E0D3940540037405F0900009E0FB7A0C
:100C1200009000137401F07D087F02121F198012E8
:100C2200900004E0B4030BE4900051F0900008E05F
:100C320014F0900006E0D3940940037401F0900090
:100C420006E0C3940150037401F0900008E07008BC
:100C5200900006E0FF121E62900007E0640160034C
:100C6200020A95900006E024FE6028146043146096
:100C72005D24037066900009E0FCE41208C2900053
:100C82000BE0900013F090000CE0900014F0121CA6
:100C920099803E900009E0FCE41208C290000BE04B
:100CA200900013F090000CE0900014F0121CEC8005
:100CB2002090000BE0900013F090000CE0900014E4
:100CC200F07F007E007D407C401215968003121258
:100CD2006BE4900007F090000504F0900005E064DA
:100CE200016003020A957BFF7A1979347D017F0145
:100CF200121EC97BFF7A1879AC7D017F02121EC9D0
:100D0200900008E004F0E4900005F0020A959000DB
:100D120003E064026003020A957BFF7A1979457D3C
:100D2200017F01121EC97BFF7A1979517D0F7F0164
:100D3200121EC97BFF7A1979537D0F7F02121EC9D9
:100D42007BFF7A1979557D0E7F02121EC97BFF7ACD
:100D52001979577D107F02121EC990000EE0FB7AAE
:100D6200009000137401F07D0B7F02121F197BFFAC
:100D72007A1979597D017F02121EC990000EE0FF97
:100D8200121964121728900004EFF0BF0B0E9000A6
:100D92000EE004F0E0D394094002E4F0900004E095
:100DA20064036003020A95900050F090004FF00235
:100DB2000A95900050E064026003020A95900003D5
:100DC200E06402705B90000BE0FB7A009000137409
:100DD20003F07D0D7F02121F19121728900004EFF5
:100DE200F0BF021290000BE02405F0E0D3946440BF
:100DF2001B7464F08016900004E0B4041490000B9D
:100E0200E024FBF0E0C394005002E4F090000B8079
:100E120061900004E06405707990000704F080722C
:100E2200900003E06401706A90000CE0FB7A00908D
:100E320000137403F07D0D7F02121F191217289000
:100E42000004EFF0BF021390000CE004F0E0D39432
:100E5200094002E4F090000C8018900004E0B4080D
:100E62002490000CE014F0E0C394005002E4F090EF
:100E7200000CE0FB7A009000137403F07D0D7F02FA
:100E8200121F19800D900004E0B40506900007744B
:100E920001F0900007E064016003020A957BFF7A8B
:100EA2001879AC7D017F02121EC9E4900007F09010
:0C0EB2000050F090004F7402F0020A950E
:03001300021D913A
:101D9100C0E0C0F0C083C082C0D075D000C000C018
:101DA10001C002C003C004C005C006C0077F0A7E8F
:101DB10000121F6A20B30C9000517401F090004F83
:101DC1007403F0D007D006D005D004D003D002D0E0
:0E1DD10001D000D0D0D082D083D0F0D0E0324C
:03000300021BDA03
:101BDA00C0E0C0F0C083C082C0D075D000C000C0D1
:101BEA0001C002C003C004C005C006C0077F0A7E48
:101BFA0000121F6A20B2207BFF7A1879AC7D017F20
:101C0A0002121EC9900050E4F090004FE004F0E088
:101C1A00D394024002E4F0D007D006D005D004D015
:101C2A0003D002D001D000D0D0D082D083D0F0D05F
:021C3A00E03296
:10059000020962E86480F8E933E83360110460F02E
:1005A000ED33EC337009E8FCE9FDEAFEEBFF2204D1
:1005B00060DED3EB9FEA9EE99DE8C2E78CF0C2F7CC
:1005C00095F0400CE8CCF8E9CDF9EACEFAEBCFFB98
:1005D00012092D85D0F05804700320D5B3E80470BB
:1005E000075002B2D502096C92D5EC0460F7E4CC56
:1005F000C0E0C398F8603B94186008400DD0E0FB61
:10060000020944E4FBFAC9FC8028E830E406E4C9A6
:10061000FBE4CAFCE830E305E4C9CACBFCE85407B4
:100620006010F8C3E913F9EA13FAEB13FBEC13FCBF
:10063000D8F130F52FC3E49CFCEF9BFFEE9AFEED62
:1006400099FDD0E0FBEF4E4D4C701222DB03020906
:1006500069EC2CFCEF33FFEE33FEED33FDED30E7BC
:10066000EB020944EF2BFFEE3AFEED39FDD0E0FB43
:1006700050130BBB000302096CED13FDEE13FEEFEC
:0806800013FFEC13FC02094416
:10068800EC4D6011E8497017ED33EC3304600DE46C
:10069800FCFFFEFD22E933E8330470F80209621218
:1006A800092D58046009E4CC248150062850090219
:1006B800096C284003020969C0E0EB4A7044B9801C
:1006C80006D0E0FB020958EF4E701CBD8008EBFF16
:1006D800EAFEE9FD80EBE98DF0A4FEE5F002077182
:1006E800E9CDF9EAFEEBFFEF89F0A4FCE5F0CE894D
:1006F800F0A42EFFE435F0CD89F0A42DFEE435F00A
:100708008067EF4E7005BD80D780C3EF8BF0A4AC37
:10071800F0EE8BF0A42CFCE435F0F8EF8AF0A42C72
:10072800E5F038FCE433CB8DF0A42CFCE5F03BF885
:10073800EE8AF0A42CFCE5F038F8E433CF89F0A475
:100748002CFCE5F038CF3400CE89F0A42FFFE5F07B
:100758003EFEE433C98DF0A42EFEE5F039CD8AF0D3
:10076800A42FFFE5F03EFEE43DFD33D0E0FB50074B
:100778000BBB000F02096CEC2CFCEF33FFEE33FED1
:06078800ED33FD020944FF
:10078E0002096CEC5D046005E8590470030209620D
:10079E0012092D580460F6EC4860F2EC7004FDFE70
:1007AE00FF22C860DB2481C85009C398600250063E
:1007BE000209699850CAF582E9294B4A7005AB8245
:1007CE0002095875F0007C1A7880C3EF9BEE9AED03
:1007DE0099400DC3EF9BFFEE9AFEED99FDE842F0B6
:1007EE00DC23ACF0D0E0FFD0E0FED0E0FDAB822009
:1007FE00E7101BEB60BAEC2CFCEF33FFEE33FEED93
:10080E0033FD020944E803F830E705C0F075F00047
:10081E00EF2FFFEE33FEED33FD40B830E7C280AA76
:10082E0074F8CC6480CCC86480C8F58204604FC371
:10083E00EB9FF5F0EA9E42F0E99D42F0E89C45F010
:10084E00603C501DE5825FFFE582D313CB5BCBF49A
:10085E002B5582FB50280ABA002409B900200880C3
:10086E001DE5825BFBE582D313CF5FCFF4C3132F5D
:10087E005582FF50090EBE00050DBD00010CC3EBE5
:10088E009FF5F0EA9E42F0E99D42F0E89C45F0604B
:09089E0007CC4820E701B3EC226D
:1008A700ED33EC33600A047003BD8004ECB2E7FC5F
:0108B700221E
:1008B80075F020800E75F010800575F0087D007EBB
:1008C800007F003392D530D503120A0BEC33401069
:1008D800EF33FFEE33FEED33FDEC33FCD5F0ED22C4
:0E08E800E5F0247EA2D513CC92E7CDCEFF2200
:1008F600EDD2E7CD33EC3392D524814006E4FFFEFA
:10090600FDFC22FCE4CFCECDCC24E0501174FF8058
:10091600EDC3CC13CCCD13CDCE13CECF13CF0470F5
:07092600F030D5DE020A0BE0
:101B2E0002096222EDA2E7D2E7F9EC3340F260F34C
:101B3E00B4FF08ED547F70E802096CF82481C2E00E
:101B4E00C0E0F40428FAC313FCED92E7FD90003ECA
:101B5E00120A25EEA2E7E9BA7F02C31334009400FD
:101B6E00FA75F091A4E5F013F494FE8AF0A433E52F
:101B7E00F033248CD313FDE492E7FE7F007C3F7597
:101B8E008302ECC0E0F8EDC0E0F9EEC0E0FAEFC081
:101B9E00E0FB8583F090003E120A1985F083120750
:101BAE0091D0E0FBD0E0FAD0E0F9D0E0F812059742
:101BBE00ED6480FD30E7011CD583C7ED33CC33F8DF
:0C1BCE00D0E0A2E71328C313CC13FD22C3
:10092D00E9D2E7C933E833F892D5EDD2E7CD33EC10
:07093D0033FC5002B2D52289
:10094400EC30E7100FBF000C0EBE00080DBD000414
:100954000BEB6014A2D5EB13FCED92E7FD2274FFC0
:10096400FCFDFEFF22E480F8A2D574FF13FC7D8019
:03097400E480EF2D
:03000000020006F5
:0C000600787FE4F6D8FD758107020A62DD
:10097700BB010CE58229F582E5833AF583E0225035
:1009870006E92582F8E622BBFE06E92582F8E2227F
:0D099700E58229F582E5833AF583E4932299
:1009A400EF8DF0A4A8F0CF8CF0A428CE8DF0A42E67
:0209B400FE2221
:1009B600BC000BBE0029EF8DF084FFADF022E4CC25
:1009C600F875F008EF2FFFEE33FEEC33FCEE9DECEE
:1009D600984005FCEE9DFE0FD5F0E9E4CEFD22ED34
:1009E600F8F5F0EE8420D21CFEADF075F008EF2F7E
:1009F600FFED33FD4007985006D5F0F222C398FD6F
:050A06000FD5F0EA220B
:0E0A0B00C3E49FFFE49EFEE49DFDE49CFC22FC
:0C0A1900E0FCA3E0FDA3E0FEA3E0FF2250
:0C0A2500ECF0A3EDF0A3EEF0A3EFF02244
:100A3100A8828583F0D083D082120A48120A481214
:100A41000A48120A48E473E493A3C583C5F0C58339
:100A5100C8C582C8F0A3C583C5F0C583C8C582C80F
:010A61002272
:00000001FF
